{
  "contractName": "Posts",
  "abi": [
    {
      "constant": true,
      "inputs": [
        {
          "internalType": "uint8",
          "name": "idPost",
          "type": "uint8"
        }
      ],
      "name": "getPost",
      "outputs": [
        {
          "internalType": "address",
          "name": "",
          "type": "address"
        },
        {
          "internalType": "uint16",
          "name": "",
          "type": "uint16"
        },
        {
          "internalType": "string",
          "name": "",
          "type": "string"
        },
        {
          "internalType": "uint8",
          "name": "",
          "type": "uint8"
        }
      ],
      "payable": false,
      "stateMutability": "view",
      "type": "function"
    },
    {
      "constant": false,
      "inputs": [
        {
          "internalType": "uint8",
          "name": "idPost",
          "type": "uint8"
        }
      ],
      "name": "addLike",
      "outputs": [],
      "payable": false,
      "stateMutability": "nonpayable",
      "type": "function"
    },
    {
      "constant": false,
      "inputs": [
        {
          "internalType": "string",
          "name": "content",
          "type": "string"
        }
      ],
      "name": "addPost",
      "outputs": [],
      "payable": false,
      "stateMutability": "nonpayable",
      "type": "function"
    },
    {
      "constant": true,
      "inputs": [],
      "name": "getNumberOfPosts",
      "outputs": [
        {
          "internalType": "uint8",
          "name": "",
          "type": "uint8"
        }
      ],
      "payable": false,
      "stateMutability": "view",
      "type": "function"
    }
  ],
  "bytecode": "0x608060405234801561001057600080fd5b5061082b806100206000396000f3fe608060405234801561001057600080fd5b506004361061004c5760003560e01c806337bbcaa0146100515780635b2396111461006f578063a6322819146100a2578063afe3ff63146100be575b600080fd5b6100596100da565b60405161006691906106a1565b60405180910390f35b610089600480360361008491908101906105c6565b6100f0565b6040516100999493929190610655565b60405180910390f35b6100bc60048036036100b79190810190610585565b610281565b005b6100d860048036036100d391908101906105c6565b6103e3565b005b60008060009054906101000a900460ff16905090565b600080606060006100ff610432565b600160008760ff1660ff1681526020019081526020016000206040518060800160405290816000820160009054906101000a900473ffffffffffffffffffffffffffffffffffffffff1673ffffffffffffffffffffffffffffffffffffffff1673ffffffffffffffffffffffffffffffffffffffff1681526020016000820160149054906101000a900461ffff1661ffff1661ffff168152602001600182018054600181600116156101000203166002900480601f0160208091040260200160405190810160405280929190818152602001828054600181600116156101000203166002900480156102325780601f1061020757610100808354040283529160200191610232565b820191906000526020600020905b81548152906001019060200180831161021557829003601f168201915b505050505081526020016002820160009054906101000a900460ff1660ff1660ff1681525050905080600001518160200151826040015183606001518191509450945094509450509193509193565b610289610432565b60405180608001604052803373ffffffffffffffffffffffffffffffffffffffff1681526020016000809054906101000a900460ff1660ff1661ffff168152602001838152602001600060ff16815250905080600160008060009054906101000a900460ff1660ff1660ff16815260200190815260200160002060008201518160000160006101000a81548173ffffffffffffffffffffffffffffffffffffffff021916908373ffffffffffffffffffffffffffffffffffffffff16021790555060208201518160000160146101000a81548161ffff021916908361ffff1602179055506040820151816001019080519060200190610389929190610477565b5060608201518160020160006101000a81548160ff021916908360ff16021790555090505060008081819054906101000a900460ff168092919060010191906101000a81548160ff021916908360ff160217905550505050565b600160008260ff1660ff168152602001908152602001600020600201600081819054906101000a900460ff168092919060010191906101000a81548160ff021916908360ff1602179055505050565b6040518060800160405280600073ffffffffffffffffffffffffffffffffffffffff168152602001600061ffff16815260200160608152602001600060ff1681525090565b828054600181600116156101000203166002900490600052602060002090601f016020900481019282601f106104b857805160ff19168380011785556104e6565b828001600101855582156104e6579182015b828111156104e55782518255916020019190600101906104ca565b5b5090506104f391906104f7565b5090565b61051991905b808211156105155760008160009055506001016104fd565b5090565b90565b600082601f83011261052d57600080fd5b813561054061053b826106e9565b6106bc565b9150808252602083016020830185838301111561055c57600080fd5b61056783828461077e565b50505092915050565b60008135905061057f816107d1565b92915050565b60006020828403121561059757600080fd5b600082013567ffffffffffffffff8111156105b157600080fd5b6105bd8482850161051c565b91505092915050565b6000602082840312156105d857600080fd5b60006105e684828501610570565b91505092915050565b6105f881610731565b82525050565b600061060982610715565b6106138185610720565b935061062381856020860161078d565b61062c816107c0565b840191505092915050565b61064081610743565b82525050565b61064f81610771565b82525050565b600060808201905061066a60008301876105ef565b6106776020830186610637565b818103604083015261068981856105fe565b90506106986060830184610646565b95945050505050565b60006020820190506106b66000830184610646565b92915050565b6000604051905081810181811067ffffffffffffffff821117156106df57600080fd5b8060405250919050565b600067ffffffffffffffff82111561070057600080fd5b601f19601f8301169050602081019050919050565b600081519050919050565b600082825260208201905092915050565b600061073c82610751565b9050919050565b600061ffff82169050919050565b600073ffffffffffffffffffffffffffffffffffffffff82169050919050565b600060ff82169050919050565b82818337600083830152505050565b60005b838110156107ab578082015181840152602081019050610790565b838111156107ba576000848401525b50505050565b6000601f19601f8301169050919050565b6107da81610771565b81146107e557600080fd5b5056fea365627a7a7231582050354e2fdbcfac14cf5e655510d96ed4c70a442a254143664bfafb8191a5d3696c6578706572696d656e74616cf564736f6c63430005100040",
  "source": "pragma solidity >=0.4.22 <0.6.0;\npragma experimental ABIEncoderV2;\n\ncontract Posts{\n\tstruct Post{\n\t\taddress account;\n\t\tuint16 idPost;\n\t\tstring content;\n\t\tuint8 numLikes;\n\t}\n\tuint8 numberOfPosts;\n\tmapping (uint8 => Post) posts;\n\tfunction getPost(uint8 idPost) public view returns (address, uint16, string memory, uint8) {\n\t\tPost memory post = posts[idPost];\n\t\treturn (post.account, post.idPost, post.content, post.numLikes);\n\t}\n\n\tfunction addLike(uint8 idPost) public {\n\t\tposts[idPost].numLikes++;\n\t}\n\n\tfunction addPost(string memory content) public {\n\t\tPost memory post = Post(msg.sender, numberOfPosts, content, 0);\n\t\tposts[numberOfPosts] = post;\n\t\tnumberOfPosts++;\n\t}\n\n\tfunction getNumberOfPosts() public view returns (uint8) {\n\t\treturn numberOfPosts;\n\t}\n}\n\n",
  "sourcePath": "/Users/sergiopena/Documents/Master/SOD/my-app/src/blockchainPosts/contracts/Posts.sol",
  "compiler": {
    "name": "solc",
    "version": "0.5.16+commit.9c3226ce.Emscripten.clang"
  },
  "schemaVersion": "3.1.0",
  "updatedAt": "2020-05-30T16:02:29.109Z",
  "networkType": "ethereum",
  "devdoc": {
    "methods": {}
  },
  "userdoc": {
    "methods": {}
  }
}