{
  "contractName": "Users",
  "abi": [
    {
      "constant": true,
      "inputs": [
        {
          "internalType": "address",
          "name": "user",
          "type": "address"
        }
      ],
      "name": "getUsername",
      "outputs": [
        {
          "internalType": "string",
          "name": "",
          "type": "string"
        }
      ],
      "payable": false,
      "stateMutability": "view",
      "type": "function"
    },
    {
      "constant": true,
      "inputs": [
        {
          "internalType": "address",
          "name": "user",
          "type": "address"
        }
      ],
      "name": "isAccountUsed",
      "outputs": [
        {
          "internalType": "bool",
          "name": "",
          "type": "bool"
        }
      ],
      "payable": false,
      "stateMutability": "view",
      "type": "function"
    },
    {
      "constant": false,
      "inputs": [
        {
          "internalType": "string",
          "name": "username",
          "type": "string"
        }
      ],
      "name": "addUser",
      "outputs": [],
      "payable": false,
      "stateMutability": "nonpayable",
      "type": "function"
    },
    {
      "constant": true,
      "inputs": [
        {
          "internalType": "uint8",
          "name": "idUser",
          "type": "uint8"
        }
      ],
      "name": "getUser",
      "outputs": [
        {
          "internalType": "string",
          "name": "",
          "type": "string"
        },
        {
          "internalType": "address",
          "name": "",
          "type": "address"
        }
      ],
      "payable": false,
      "stateMutability": "view",
      "type": "function"
    },
    {
      "constant": true,
      "inputs": [],
      "name": "getNumberOfUsers",
      "outputs": [
        {
          "internalType": "uint8",
          "name": "",
          "type": "uint8"
        }
      ],
      "payable": false,
      "stateMutability": "view",
      "type": "function"
    }
  ],
  "bytecode": "0x608060405234801561001057600080fd5b50610a49806100206000396000f3fe608060405234801561001057600080fd5b50600436106100575760003560e01c806318b8275a1461005c5780634d009288146100785780637dadbded146100965780639fbf1522146100c6578063ce43c032146100f7575b600080fd5b6100766004803603610071919081019061076d565b610127565b005b610080610249565b60405161008d91906108aa565b60405180910390f35b6100b060048036036100ab9190810190610744565b61025f565b6040516100bd919061083d565b60405180910390f35b6100e060048036036100db91908101906107ae565b610315565b6040516100ee92919061087a565b60405180910390f35b610111600480360361010c9190810190610744565b610471565b60405161011e9190610858565b60405180910390f35b61012f6105e8565b60405180606001604052808381526020013373ffffffffffffffffffffffffffffffffffffffff16815260200160011515815250905080600160008060009054906101000a900460ff1660ff1660ff16815260200190815260200160002060008201518160000190805190602001906101a9929190610621565b5060208201518160010160006101000a81548173ffffffffffffffffffffffffffffffffffffffff021916908373ffffffffffffffffffffffffffffffffffffffff16021790555060408201518160010160146101000a81548160ff02191690831515021790555090505060008081819054906101000a900460ff168092919060010191906101000a81548160ff021916908360ff160217905550505050565b60008060009054906101000a900460ff16905090565b600080600090505b6000809054906101000a900460ff1660ff168160ff16101561030a57600160008260ff1660ff16815260200190815260200160002060010160009054906101000a900473ffffffffffffffffffffffffffffffffffffffff1673ffffffffffffffffffffffffffffffffffffffff168373ffffffffffffffffffffffffffffffffffffffff1614156102fd576001915050610310565b8080600101915050610267565b50600090505b919050565b606060006103216105e8565b600160008560ff1660ff168152602001908152602001600020604051806060016040529081600082018054600181600116156101000203166002900480601f0160208091040260200160405190810160405280929190818152602001828054600181600116156101000203166002900480156103de5780601f106103b3576101008083540402835291602001916103de565b820191906000526020600020905b8154815290600101906020018083116103c157829003601f168201915b505050505081526020016001820160009054906101000a900473ffffffffffffffffffffffffffffffffffffffff1673ffffffffffffffffffffffffffffffffffffffff1673ffffffffffffffffffffffffffffffffffffffff1681526020016001820160149054906101000a900460ff1615151515815250509050806000015181602001518191509250925050915091565b606060008090505b6000809054906101000a900460ff1660ff168160ff1610156105cf57600160008260ff1660ff16815260200190815260200160002060010160009054906101000a900473ffffffffffffffffffffffffffffffffffffffff1673ffffffffffffffffffffffffffffffffffffffff168373ffffffffffffffffffffffffffffffffffffffff1614156105c257600160008260ff1660ff1681526020019081526020016000206000018054600181600116156101000203166002900480601f0160208091040260200160405190810160405280929190818152602001828054600181600116156101000203166002900480156105b55780601f1061058a576101008083540402835291602001916105b5565b820191906000526020600020905b81548152906001019060200180831161059857829003601f168201915b50505050509150506105e3565b8080600101915050610479565b506040518060200160405280600081525090505b919050565b604051806060016040528060608152602001600073ffffffffffffffffffffffffffffffffffffffff1681526020016000151581525090565b828054600181600116156101000203166002900490600052602060002090601f016020900481019282601f1061066257805160ff1916838001178555610690565b82800160010185558215610690579182015b8281111561068f578251825591602001919060010190610674565b5b50905061069d91906106a1565b5090565b6106c391905b808211156106bf5760008160009055506001016106a7565b5090565b90565b6000813590506106d5816109d8565b92915050565b600082601f8301126106ec57600080fd5b81356106ff6106fa826108f2565b6108c5565b9150808252602083016020830185838301111561071b57600080fd5b610726838284610985565b50505092915050565b60008135905061073e816109ef565b92915050565b60006020828403121561075657600080fd5b6000610764848285016106c6565b91505092915050565b60006020828403121561077f57600080fd5b600082013567ffffffffffffffff81111561079957600080fd5b6107a5848285016106db565b91505092915050565b6000602082840312156107c057600080fd5b60006107ce8482850161072f565b91505092915050565b6107e08161093a565b82525050565b6107ef8161094c565b82525050565b60006108008261091e565b61080a8185610929565b935061081a818560208601610994565b610823816109c7565b840191505092915050565b61083781610978565b82525050565b600060208201905061085260008301846107e6565b92915050565b6000602082019050818103600083015261087281846107f5565b905092915050565b6000604082019050818103600083015261089481856107f5565b90506108a360208301846107d7565b9392505050565b60006020820190506108bf600083018461082e565b92915050565b6000604051905081810181811067ffffffffffffffff821117156108e857600080fd5b8060405250919050565b600067ffffffffffffffff82111561090957600080fd5b601f19601f8301169050602081019050919050565b600081519050919050565b600082825260208201905092915050565b600061094582610958565b9050919050565b60008115159050919050565b600073ffffffffffffffffffffffffffffffffffffffff82169050919050565b600060ff82169050919050565b82818337600083830152505050565b60005b838110156109b2578082015181840152602081019050610997565b838111156109c1576000848401525b50505050565b6000601f19601f8301169050919050565b6109e18161093a565b81146109ec57600080fd5b50565b6109f881610978565b8114610a0357600080fd5b5056fea365627a7a72315820e5b822d62c21325e9c811db5a73682da7f15da9b24b41baed6422cdd0b7bc36f6c6578706572696d656e74616cf564736f6c63430005100040",
  "source": "pragma solidity >=0.4.22 <0.6.0;\npragma experimental ABIEncoderV2;\n\ncontract Users{\n\tstruct User{\n\t\tstring name;\n\t\taddress account;\n\t\tbool used;\n\t}\n\n\tuint8 numberOfUsers;\n\tmapping (uint8 => User) users;\n\n\tfunction getUsername(address user) public view returns (string memory) {\n\t\tfor(uint8 i = 0; i < numberOfUsers; i++){\n\t\t\tif (user == users[i].account) {\n\t\t\t\treturn users[i].name;\n\t\t\t}\n\t\t}\n\t\treturn \"\";\n\t}\n\n\tfunction isAccountUsed(address user) public view returns (bool) {\n\t\tfor(uint8 i = 0; i < numberOfUsers; i++){\n\t\t\tif (user == users[i].account) {\n\t\t\t\treturn true;\n\t\t\t}\n\t\t}\n\t\treturn false;\n\t}\n\n\n\tfunction addUser(string memory username) public {\n\t\tUser memory user = User(username, msg.sender, true);\n\t\tusers[numberOfUsers] = user;\n\t\tnumberOfUsers++;\n\t}\n\n\tfunction getUser(uint8 idUser) public view returns (string memory, address) {\n\t\tUser memory user = users[idUser];\n\t\treturn (user.name, user.account);\n\t}\n\n\tfunction getNumberOfUsers() public view returns (uint8) {\n\t\treturn numberOfUsers;\n\t}\n}\n\n",
  "sourcePath": "/Users/sergiopena/Documents/Master/SOD/my-app/src/blockchainPosts/contracts/Users.sol",
  "compiler": {
    "name": "solc",
    "version": "0.5.16+commit.9c3226ce.Emscripten.clang"
  },
  "schemaVersion": "3.1.0",
  "updatedAt": "2020-05-30T16:02:29.111Z",
  "networkType": "ethereum",
  "devdoc": {
    "methods": {}
  },
  "userdoc": {
    "methods": {}
  }
}